{
  "_format": "hh-sol-artifact-1",
  "contractName": "APIToken",
  "sourceName": "contracts/APIToken.sol",
  "abi": [
    {
      "inputs": [
        {
          "internalType": "contract IERC20",
          "name": "token",
          "type": "address"
        }
      ],
      "stateMutability": "nonpayable",
      "type": "constructor"
    },
    {
      "anonymous": false,
      "inputs": [
        {
          "indexed": true,
          "internalType": "address",
          "name": "account",
          "type": "address"
        },
        {
          "indexed": true,
          "internalType": "address",
          "name": "operator",
          "type": "address"
        },
        {
          "indexed": false,
          "internalType": "bool",
          "name": "approved",
          "type": "bool"
        }
      ],
      "name": "ApprovalForAll",
      "type": "event"
    },
    {
      "anonymous": false,
      "inputs": [
        {
          "indexed": true,
          "internalType": "address",
          "name": "operator",
          "type": "address"
        },
        {
          "indexed": true,
          "internalType": "address",
          "name": "from",
          "type": "address"
        },
        {
          "indexed": true,
          "internalType": "address",
          "name": "to",
          "type": "address"
        },
        {
          "indexed": false,
          "internalType": "uint256[]",
          "name": "ids",
          "type": "uint256[]"
        },
        {
          "indexed": false,
          "internalType": "uint256[]",
          "name": "values",
          "type": "uint256[]"
        }
      ],
      "name": "TransferBatch",
      "type": "event"
    },
    {
      "anonymous": false,
      "inputs": [
        {
          "indexed": true,
          "internalType": "address",
          "name": "operator",
          "type": "address"
        },
        {
          "indexed": true,
          "internalType": "address",
          "name": "from",
          "type": "address"
        },
        {
          "indexed": true,
          "internalType": "address",
          "name": "to",
          "type": "address"
        },
        {
          "indexed": false,
          "internalType": "uint256",
          "name": "id",
          "type": "uint256"
        },
        {
          "indexed": false,
          "internalType": "uint256",
          "name": "value",
          "type": "uint256"
        }
      ],
      "name": "TransferSingle",
      "type": "event"
    },
    {
      "anonymous": false,
      "inputs": [
        {
          "indexed": false,
          "internalType": "string",
          "name": "value",
          "type": "string"
        },
        {
          "indexed": true,
          "internalType": "uint256",
          "name": "id",
          "type": "uint256"
        }
      ],
      "name": "URI",
      "type": "event"
    },
    {
      "inputs": [],
      "name": "AliAPIToken",
      "outputs": [
        {
          "internalType": "uint256",
          "name": "",
          "type": "uint256"
        }
      ],
      "stateMutability": "view",
      "type": "function"
    },
    {
      "inputs": [
        {
          "internalType": "address",
          "name": "account",
          "type": "address"
        },
        {
          "internalType": "uint256",
          "name": "id",
          "type": "uint256"
        }
      ],
      "name": "balanceOf",
      "outputs": [
        {
          "internalType": "uint256",
          "name": "",
          "type": "uint256"
        }
      ],
      "stateMutability": "view",
      "type": "function"
    },
    {
      "inputs": [
        {
          "internalType": "address[]",
          "name": "accounts",
          "type": "address[]"
        },
        {
          "internalType": "uint256[]",
          "name": "ids",
          "type": "uint256[]"
        }
      ],
      "name": "balanceOfBatch",
      "outputs": [
        {
          "internalType": "uint256[]",
          "name": "",
          "type": "uint256[]"
        }
      ],
      "stateMutability": "view",
      "type": "function"
    },
    {
      "inputs": [],
      "name": "checkDaiAllowance",
      "outputs": [
        {
          "internalType": "uint256",
          "name": "daiAllowed",
          "type": "uint256"
        },
        {
          "internalType": "bool",
          "name": "",
          "type": "bool"
        }
      ],
      "stateMutability": "view",
      "type": "function"
    },
    {
      "inputs": [
        {
          "internalType": "uint256",
          "name": "_amount",
          "type": "uint256"
        }
      ],
      "name": "getAPIToken",
      "outputs": [],
      "stateMutability": "nonpayable",
      "type": "function"
    },
    {
      "inputs": [
        {
          "internalType": "address",
          "name": "account",
          "type": "address"
        },
        {
          "internalType": "address",
          "name": "operator",
          "type": "address"
        }
      ],
      "name": "isApprovedForAll",
      "outputs": [
        {
          "internalType": "bool",
          "name": "",
          "type": "bool"
        }
      ],
      "stateMutability": "view",
      "type": "function"
    },
    {
      "inputs": [
        {
          "internalType": "address",
          "name": "from",
          "type": "address"
        },
        {
          "internalType": "address",
          "name": "to",
          "type": "address"
        },
        {
          "internalType": "uint256[]",
          "name": "ids",
          "type": "uint256[]"
        },
        {
          "internalType": "uint256[]",
          "name": "amounts",
          "type": "uint256[]"
        },
        {
          "internalType": "bytes",
          "name": "data",
          "type": "bytes"
        }
      ],
      "name": "safeBatchTransferFrom",
      "outputs": [],
      "stateMutability": "nonpayable",
      "type": "function"
    },
    {
      "inputs": [
        {
          "internalType": "address",
          "name": "from",
          "type": "address"
        },
        {
          "internalType": "address",
          "name": "to",
          "type": "address"
        },
        {
          "internalType": "uint256",
          "name": "id",
          "type": "uint256"
        },
        {
          "internalType": "uint256",
          "name": "amount",
          "type": "uint256"
        },
        {
          "internalType": "bytes",
          "name": "data",
          "type": "bytes"
        }
      ],
      "name": "safeTransferFrom",
      "outputs": [],
      "stateMutability": "nonpayable",
      "type": "function"
    },
    {
      "inputs": [
        {
          "internalType": "address",
          "name": "operator",
          "type": "address"
        },
        {
          "internalType": "bool",
          "name": "approved",
          "type": "bool"
        }
      ],
      "name": "setApprovalForAll",
      "outputs": [],
      "stateMutability": "nonpayable",
      "type": "function"
    },
    {
      "inputs": [
        {
          "internalType": "bytes4",
          "name": "interfaceId",
          "type": "bytes4"
        }
      ],
      "name": "supportsInterface",
      "outputs": [
        {
          "internalType": "bool",
          "name": "",
          "type": "bool"
        }
      ],
      "stateMutability": "view",
      "type": "function"
    },
    {
      "inputs": [
        {
          "internalType": "uint256",
          "name": "",
          "type": "uint256"
        }
      ],
      "name": "uri",
      "outputs": [
        {
          "internalType": "string",
          "name": "",
          "type": "string"
        }
      ],
      "stateMutability": "view",
      "type": "function"
    }
  ],
  "bytecode": "0x60806040523480156200001157600080fd5b506040516200318138038062003181833981810160405281019062000037919062000184565b604051806020016040528060008152506200005881620000a160201b60201c565b5080600360006101000a81548173ffffffffffffffffffffffffffffffffffffffff021916908373ffffffffffffffffffffffffffffffffffffffff1602179055505062000277565b8060029080519060200190620000b9929190620000bd565b5050565b828054620000cb90620001f8565b90600052602060002090601f016020900481019282620000ef57600085556200013b565b82601f106200010a57805160ff19168380011785556200013b565b828001600101855582156200013b579182015b828111156200013a5782518255916020019190600101906200011d565b5b5090506200014a91906200014e565b5090565b5b80821115620001695760008160009055506001016200014f565b5090565b6000815190506200017e816200025d565b92915050565b6000602082840312156200019757600080fd5b6000620001a7848285016200016d565b91505092915050565b6000620001bd82620001d8565b9050919050565b6000620001d182620001b0565b9050919050565b600073ffffffffffffffffffffffffffffffffffffffff82169050919050565b600060028204905060018216806200021157607f821691505b602082108114156200022857620002276200022e565b5b50919050565b7f4e487b7100000000000000000000000000000000000000000000000000000000600052602260045260246000fd5b6200026881620001c4565b81146200027457600080fd5b50565b612efa80620002876000396000f3fe608060405234801561001057600080fd5b50600436106100a85760003560e01c80634e1273f4116100715780634e1273f4146101755780634f1ed5aa146101a557806357f0fa69146101c4578063a22cb465146101e2578063e985e9c5146101fe578063f242432a1461022e576100a8565b8062fdd58e146100ad57806301ffc9a7146100dd5780630e89341c1461010d57806323df5dd41461013d5780632eb2c2d614610159575b600080fd5b6100c760048036038101906100c29190611db6565b61024a565b6040516100d4919061295b565b60405180910390f35b6100f760048036038101906100f29190611e87565b610313565b604051610104919061275e565b60405180910390f35b61012760048036038101906101229190611ed9565b6103f5565b6040516101349190612779565b60405180910390f35b61015760048036038101906101529190611ed9565b610489565b005b610173600480360381019061016e9190611c2c565b6106e5565b005b61018f600480360381019061018a9190611df2565b610adb565b60405161019c9190612705565b60405180910390f35b6101ad610c8c565b6040516101bb929190612976565b60405180910390f35b6101cc610e0e565b6040516101d9919061295b565b60405180910390f35b6101fc60048036038101906101f79190611d7a565b610e13565b005b61021860048036038101906102139190611bf0565b610f94565b604051610225919061275e565b60405180910390f35b61024860048036038101906102439190611ceb565b611028565b005b60008073ffffffffffffffffffffffffffffffffffffffff168373ffffffffffffffffffffffffffffffffffffffff1614156102bb576040517f08c379a00000000000000000000000000000000000000000000000000000000081526004016102b29061281b565b60405180910390fd5b60008083815260200190815260200160002060008473ffffffffffffffffffffffffffffffffffffffff1673ffffffffffffffffffffffffffffffffffffffff16815260200190815260200160002054905092915050565b60007fd9b67a26000000000000000000000000000000000000000000000000000000007bffffffffffffffffffffffffffffffffffffffffffffffffffffffff1916827bffffffffffffffffffffffffffffffffffffffffffffffffffffffff191614806103de57507f0e89341c000000000000000000000000000000000000000000000000000000007bffffffffffffffffffffffffffffffffffffffffffffffffffffffff1916827bffffffffffffffffffffffffffffffffffffffffffffffffffffffff1916145b806103ee57506103ed82611340565b5b9050919050565b60606002805461040490612c8c565b80601f016020809104026020016040519081016040528092919081815260200182805461043090612c8c565b801561047d5780601f106104525761010080835404028352916020019161047d565b820191906000526020600020905b81548152906001019060200180831161046057829003601f168201915b50505050509050919050565b60018111156104cd576040517f08c379a00000000000000000000000000000000000000000000000000000000081526004016104c4906127db565b60405180910390fd5b6000600360009054906101000a900473ffffffffffffffffffffffffffffffffffffffff1673ffffffffffffffffffffffffffffffffffffffff1663dd62ed3e33306040518363ffffffff1660e01b815260040161052c9291906125e3565b60206040518083038186803b15801561054457600080fd5b505afa158015610558573d6000803e3d6000fd5b505050506040513d601f19601f8201168201806040525081019061057c9190611f02565b14156105bd576040517f08c379a00000000000000000000000000000000000000000000000000000000081526004016105b49061283b565b60405180910390fd5b600033905060011515600360009054906101000a900473ffffffffffffffffffffffffffffffffffffffff1673ffffffffffffffffffffffffffffffffffffffff166323b872dd8330866040518463ffffffff1660e01b815260040161062593929190612674565b602060405180830381600087803b15801561063f57600080fd5b505af1158015610653573d6000803e3d6000fd5b505050506040513d601f19601f820116820180604052508101906106779190611e5e565b1515146106b9576040517f08c379a00000000000000000000000000000000000000000000000000000000081526004016106b0906127fb565b60405180910390fd5b6106e13360006064856106cc9190612b48565b604051806020016040528060008152506113aa565b5050565b8151835114610729576040517f08c379a00000000000000000000000000000000000000000000000000000000081526004016107209061291b565b60405180910390fd5b600073ffffffffffffffffffffffffffffffffffffffff168473ffffffffffffffffffffffffffffffffffffffff161415610799576040517f08c379a00000000000000000000000000000000000000000000000000000000081526004016107909061287b565b60405180910390fd5b6107a1611540565b73ffffffffffffffffffffffffffffffffffffffff168573ffffffffffffffffffffffffffffffffffffffff1614806107e757506107e6856107e1611540565b610f94565b5b610826576040517f08c379a000000000000000000000000000000000000000000000000000000000815260040161081d9061289b565b60405180910390fd5b6000610830611540565b9050610840818787878787611548565b60005b8451811015610a46576000858281518110610887577f4e487b7100000000000000000000000000000000000000000000000000000000600052603260045260246000fd5b6020026020010151905060008583815181106108cc577f4e487b7100000000000000000000000000000000000000000000000000000000600052603260045260246000fd5b60200260200101519050600080600084815260200190815260200160002060008b73ffffffffffffffffffffffffffffffffffffffff1673ffffffffffffffffffffffffffffffffffffffff1681526020019081526020016000205490508181101561096d576040517f08c379a0000000000000000000000000000000000000000000000000000000008152600401610964906128bb565b60405180910390fd5b81816109799190612ba2565b60008085815260200190815260200160002060008c73ffffffffffffffffffffffffffffffffffffffff1673ffffffffffffffffffffffffffffffffffffffff168152602001908152602001600020819055508160008085815260200190815260200160002060008b73ffffffffffffffffffffffffffffffffffffffff1673ffffffffffffffffffffffffffffffffffffffff1681526020019081526020016000206000828254610a2b9190612af2565b9250508190555050505080610a3f90612cbe565b9050610843565b508473ffffffffffffffffffffffffffffffffffffffff168673ffffffffffffffffffffffffffffffffffffffff168273ffffffffffffffffffffffffffffffffffffffff167f4a39dc06d4c0dbc64b70af90fd698a233a518aa5d07e595d983b8c0526c8f7fb8787604051610abd929190612727565b60405180910390a4610ad3818787878787611550565b505050505050565b60608151835114610b21576040517f08c379a0000000000000000000000000000000000000000000000000000000008152600401610b18906128fb565b60405180910390fd5b6000835167ffffffffffffffff811115610b64577f4e487b7100000000000000000000000000000000000000000000000000000000600052604160045260246000fd5b604051908082528060200260200182016040528015610b925781602001602082028036833780820191505090505b50905060005b8451811015610c8157610c2b858281518110610bdd577f4e487b7100000000000000000000000000000000000000000000000000000000600052603260045260246000fd5b6020026020010151858381518110610c1e577f4e487b7100000000000000000000000000000000000000000000000000000000600052603260045260246000fd5b602002602001015161024a565b828281518110610c64577f4e487b7100000000000000000000000000000000000000000000000000000000600052603260045260246000fd5b60200260200101818152505080610c7a90612cbe565b9050610b98565b508091505092915050565b6000806000600360009054906101000a900473ffffffffffffffffffffffffffffffffffffffff1673ffffffffffffffffffffffffffffffffffffffff1663dd62ed3e33306040518363ffffffff1660e01b8152600401610cee9291906125e3565b60206040518083038186803b158015610d0657600080fd5b505afa158015610d1a573d6000803e3d6000fd5b505050506040513d601f19601f82011682018060405250810190610d3e9190611f02565b90506000600360009054906101000a900473ffffffffffffffffffffffffffffffffffffffff1673ffffffffffffffffffffffffffffffffffffffff1663dd62ed3e33306040518363ffffffff1660e01b8152600401610d9f9291906125e3565b60206040518083038186803b158015610db757600080fd5b505afa158015610dcb573d6000803e3d6000fd5b505050506040513d601f19601f82011682018060405250810190610def9190611f02565b14610e01578060019250925050610e0a565b80600092509250505b9091565b600081565b8173ffffffffffffffffffffffffffffffffffffffff16610e32611540565b73ffffffffffffffffffffffffffffffffffffffff161415610e89576040517f08c379a0000000000000000000000000000000000000000000000000000000008152600401610e80906128db565b60405180910390fd5b8060016000610e96611540565b73ffffffffffffffffffffffffffffffffffffffff1673ffffffffffffffffffffffffffffffffffffffff16815260200190815260200160002060008473ffffffffffffffffffffffffffffffffffffffff1673ffffffffffffffffffffffffffffffffffffffff16815260200190815260200160002060006101000a81548160ff0219169083151502179055508173ffffffffffffffffffffffffffffffffffffffff16610f43611540565b73ffffffffffffffffffffffffffffffffffffffff167f17307eab39ab6107e8899845ad3d59bd9653f200f220920489ca2b5937696c3183604051610f88919061275e565b60405180910390a35050565b6000600160008473ffffffffffffffffffffffffffffffffffffffff1673ffffffffffffffffffffffffffffffffffffffff16815260200190815260200160002060008373ffffffffffffffffffffffffffffffffffffffff1673ffffffffffffffffffffffffffffffffffffffff16815260200190815260200160002060009054906101000a900460ff16905092915050565b600073ffffffffffffffffffffffffffffffffffffffff168473ffffffffffffffffffffffffffffffffffffffff161415611098576040517f08c379a000000000000000000000000000000000000000000000000000000000815260040161108f9061287b565b60405180910390fd5b6110a0611540565b73ffffffffffffffffffffffffffffffffffffffff168573ffffffffffffffffffffffffffffffffffffffff1614806110e657506110e5856110e0611540565b610f94565b5b611125576040517f08c379a000000000000000000000000000000000000000000000000000000000815260040161111c9061285b565b60405180910390fd5b600061112f611540565b905061114f81878761114088611720565b61114988611720565b87611548565b600080600086815260200190815260200160002060008873ffffffffffffffffffffffffffffffffffffffff1673ffffffffffffffffffffffffffffffffffffffff168152602001908152602001600020549050838110156111e6576040517f08c379a00000000000000000000000000000000000000000000000000000000081526004016111dd906128bb565b60405180910390fd5b83816111f29190612ba2565b60008087815260200190815260200160002060008973ffffffffffffffffffffffffffffffffffffffff1673ffffffffffffffffffffffffffffffffffffffff168152602001908152602001600020819055508360008087815260200190815260200160002060008873ffffffffffffffffffffffffffffffffffffffff1673ffffffffffffffffffffffffffffffffffffffff16815260200190815260200160002060008282546112a49190612af2565b925050819055508573ffffffffffffffffffffffffffffffffffffffff168773ffffffffffffffffffffffffffffffffffffffff168373ffffffffffffffffffffffffffffffffffffffff167fc3d58168c5ae7397731d063d5bbf3d657854427343f4c083240f7aacaa2d0f62888860405161132192919061299f565b60405180910390a46113378288888888886117e6565b50505050505050565b60007f01ffc9a7000000000000000000000000000000000000000000000000000000007bffffffffffffffffffffffffffffffffffffffffffffffffffffffff1916827bffffffffffffffffffffffffffffffffffffffffffffffffffffffff1916149050919050565b600073ffffffffffffffffffffffffffffffffffffffff168473ffffffffffffffffffffffffffffffffffffffff16141561141a576040517f08c379a00000000000000000000000000000000000000000000000000000000081526004016114119061293b565b60405180910390fd5b6000611424611540565b90506114458160008761143688611720565b61143f88611720565b87611548565b8260008086815260200190815260200160002060008773ffffffffffffffffffffffffffffffffffffffff1673ffffffffffffffffffffffffffffffffffffffff16815260200190815260200160002060008282546114a49190612af2565b925050819055508473ffffffffffffffffffffffffffffffffffffffff16600073ffffffffffffffffffffffffffffffffffffffff168273ffffffffffffffffffffffffffffffffffffffff167fc3d58168c5ae7397731d063d5bbf3d657854427343f4c083240f7aacaa2d0f62878760405161152292919061299f565b60405180910390a4611539816000878787876117e6565b5050505050565b600033905090565b505050505050565b61156f8473ffffffffffffffffffffffffffffffffffffffff166119b6565b15611718578373ffffffffffffffffffffffffffffffffffffffff1663bc197c8187878686866040518663ffffffff1660e01b81526004016115b595949392919061260c565b602060405180830381600087803b1580156115cf57600080fd5b505af192505050801561160057506040513d601f19601f820116820180604052508101906115fd9190611eb0565b60015b61168f5761160c612db2565b806116175750611654565b806040517f08c379a000000000000000000000000000000000000000000000000000000000815260040161164b9190612779565b60405180910390fd5b6040517f08c379a00000000000000000000000000000000000000000000000000000000081526004016116869061279b565b60405180910390fd5b63bc197c8160e01b7bffffffffffffffffffffffffffffffffffffffffffffffffffffffff1916817bffffffffffffffffffffffffffffffffffffffffffffffffffffffff191614611716576040517f08c379a000000000000000000000000000000000000000000000000000000000815260040161170d906127bb565b60405180910390fd5b505b505050505050565b60606000600167ffffffffffffffff811115611765577f4e487b7100000000000000000000000000000000000000000000000000000000600052604160045260246000fd5b6040519080825280602002602001820160405280156117935781602001602082028036833780820191505090505b50905082816000815181106117d1577f4e487b7100000000000000000000000000000000000000000000000000000000600052603260045260246000fd5b60200260200101818152505080915050919050565b6118058473ffffffffffffffffffffffffffffffffffffffff166119b6565b156119ae578373ffffffffffffffffffffffffffffffffffffffff1663f23a6e6187878686866040518663ffffffff1660e01b815260040161184b9594939291906126ab565b602060405180830381600087803b15801561186557600080fd5b505af192505050801561189657506040513d601f19601f820116820180604052508101906118939190611eb0565b60015b611925576118a2612db2565b806118ad57506118ea565b806040517f08c379a00000000000000000000000000000000000000000000000000000000081526004016118e19190612779565b60405180910390fd5b6040517f08c379a000000000000000000000000000000000000000000000000000000000815260040161191c9061279b565b60405180910390fd5b63f23a6e6160e01b7bffffffffffffffffffffffffffffffffffffffffffffffffffffffff1916817bffffffffffffffffffffffffffffffffffffffffffffffffffffffff1916146119ac576040517f08c379a00000000000000000000000000000000000000000000000000000000081526004016119a3906127bb565b60405180910390fd5b505b505050505050565b600080823b905060008111915050919050565b60006119dc6119d7846129f9565b6129c8565b905080838252602082019050828560208602820111156119fb57600080fd5b60005b85811015611a2b5781611a118882611adf565b8452602084019350602083019250506001810190506119fe565b5050509392505050565b6000611a48611a4384612a25565b6129c8565b90508083825260208201905082856020860282011115611a6757600080fd5b60005b85811015611a975781611a7d8882611bc6565b845260208401935060208301925050600181019050611a6a565b5050509392505050565b6000611ab4611aaf84612a51565b6129c8565b905082815260208101848484011115611acc57600080fd5b611ad7848285612c4a565b509392505050565b600081359050611aee81612e68565b92915050565b600082601f830112611b0557600080fd5b8135611b158482602086016119c9565b91505092915050565b600082601f830112611b2f57600080fd5b8135611b3f848260208601611a35565b91505092915050565b600081359050611b5781612e7f565b92915050565b600081519050611b6c81612e7f565b92915050565b600081359050611b8181612e96565b92915050565b600081519050611b9681612e96565b92915050565b600082601f830112611bad57600080fd5b8135611bbd848260208601611aa1565b91505092915050565b600081359050611bd581612ead565b92915050565b600081519050611bea81612ead565b92915050565b60008060408385031215611c0357600080fd5b6000611c1185828601611adf565b9250506020611c2285828601611adf565b9150509250929050565b600080600080600060a08688031215611c4457600080fd5b6000611c5288828901611adf565b9550506020611c6388828901611adf565b945050604086013567ffffffffffffffff811115611c8057600080fd5b611c8c88828901611b1e565b935050606086013567ffffffffffffffff811115611ca957600080fd5b611cb588828901611b1e565b925050608086013567ffffffffffffffff811115611cd257600080fd5b611cde88828901611b9c565b9150509295509295909350565b600080600080600060a08688031215611d0357600080fd5b6000611d1188828901611adf565b9550506020611d2288828901611adf565b9450506040611d3388828901611bc6565b9350506060611d4488828901611bc6565b925050608086013567ffffffffffffffff811115611d6157600080fd5b611d6d88828901611b9c565b9150509295509295909350565b60008060408385031215611d8d57600080fd5b6000611d9b85828601611adf565b9250506020611dac85828601611b48565b9150509250929050565b60008060408385031215611dc957600080fd5b6000611dd785828601611adf565b9250506020611de885828601611bc6565b9150509250929050565b60008060408385031215611e0557600080fd5b600083013567ffffffffffffffff811115611e1f57600080fd5b611e2b85828601611af4565b925050602083013567ffffffffffffffff811115611e4857600080fd5b611e5485828601611b1e565b9150509250929050565b600060208284031215611e7057600080fd5b6000611e7e84828501611b5d565b91505092915050565b600060208284031215611e9957600080fd5b6000611ea784828501611b72565b91505092915050565b600060208284031215611ec257600080fd5b6000611ed084828501611b87565b91505092915050565b600060208284031215611eeb57600080fd5b6000611ef984828501611bc6565b91505092915050565b600060208284031215611f1457600080fd5b6000611f2284828501611bdb565b91505092915050565b6000611f3783836125c5565b60208301905092915050565b611f4c81612bd6565b82525050565b6000611f5d82612a91565b611f678185612abf565b9350611f7283612a81565b8060005b83811015611fa3578151611f8a8882611f2b565b9750611f9583612ab2565b925050600181019050611f76565b5085935050505092915050565b611fb981612be8565b82525050565b6000611fca82612a9c565b611fd48185612ad0565b9350611fe4818560208601612c59565b611fed81612d94565b840191505092915050565b600061200382612aa7565b61200d8185612ae1565b935061201d818560208601612c59565b61202681612d94565b840191505092915050565b600061203e603483612ae1565b91507f455243313135353a207472616e7366657220746f206e6f6e204552433131353560008301527f526563656976657220696d706c656d656e7465720000000000000000000000006020830152604082019050919050565b60006120a4602883612ae1565b91507f455243313135353a204552433131353552656365697665722072656a6563746560008301527f6420746f6b656e730000000000000000000000000000000000000000000000006020830152604082019050919050565b600061210a602783612ae1565b91507f746f6b656e20616d6f756e742073686f75646e2774206265206772656174657260008301527f207468616e2031000000000000000000000000000000000000000000000000006020830152604082019050919050565b6000612170600583612ae1565b91507f6572726f720000000000000000000000000000000000000000000000000000006000830152602082019050919050565b60006121b0602b83612ae1565b91507f455243313135353a2062616c616e636520717565727920666f7220746865207a60008301527f65726f20616464726573730000000000000000000000000000000000000000006020830152604082019050919050565b6000612216604383612ae1565b91507f7a65726f20616c6c6f77616e63652c20706c65616520617070726f766520444160008301527f4920666972737420746f2062652075736564206279207468697320636f6e747260208301527f61637400000000000000000000000000000000000000000000000000000000006040830152606082019050919050565b60006122a2602983612ae1565b91507f455243313135353a2063616c6c6572206973206e6f74206f776e6572206e6f7260008301527f20617070726f76656400000000000000000000000000000000000000000000006020830152604082019050919050565b6000612308602583612ae1565b91507f455243313135353a207472616e7366657220746f20746865207a65726f20616460008301527f64726573730000000000000000000000000000000000000000000000000000006020830152604082019050919050565b600061236e603283612ae1565b91507f455243313135353a207472616e736665722063616c6c6572206973206e6f742060008301527f6f776e6572206e6f7220617070726f76656400000000000000000000000000006020830152604082019050919050565b60006123d4602a83612ae1565b91507f455243313135353a20696e73756666696369656e742062616c616e636520666f60008301527f72207472616e73666572000000000000000000000000000000000000000000006020830152604082019050919050565b600061243a602983612ae1565b91507f455243313135353a2073657474696e6720617070726f76616c2073746174757360008301527f20666f722073656c6600000000000000000000000000000000000000000000006020830152604082019050919050565b60006124a0602983612ae1565b91507f455243313135353a206163636f756e747320616e6420696473206c656e67746860008301527f206d69736d6174636800000000000000000000000000000000000000000000006020830152604082019050919050565b6000612506602883612ae1565b91507f455243313135353a2069647320616e6420616d6f756e7473206c656e6774682060008301527f6d69736d617463680000000000000000000000000000000000000000000000006020830152604082019050919050565b600061256c602183612ae1565b91507f455243313135353a206d696e7420746f20746865207a65726f2061646472657360008301527f73000000000000000000000000000000000000000000000000000000000000006020830152604082019050919050565b6125ce81612c40565b82525050565b6125dd81612c40565b82525050565b60006040820190506125f86000830185611f43565b6126056020830184611f43565b9392505050565b600060a0820190506126216000830188611f43565b61262e6020830187611f43565b81810360408301526126408186611f52565b905081810360608301526126548185611f52565b905081810360808301526126688184611fbf565b90509695505050505050565b60006060820190506126896000830186611f43565b6126966020830185611f43565b6126a360408301846125d4565b949350505050565b600060a0820190506126c06000830188611f43565b6126cd6020830187611f43565b6126da60408301866125d4565b6126e760608301856125d4565b81810360808301526126f98184611fbf565b90509695505050505050565b6000602082019050818103600083015261271f8184611f52565b905092915050565b600060408201905081810360008301526127418185611f52565b905081810360208301526127558184611f52565b90509392505050565b60006020820190506127736000830184611fb0565b92915050565b600060208201905081810360008301526127938184611ff8565b905092915050565b600060208201905081810360008301526127b481612031565b9050919050565b600060208201905081810360008301526127d481612097565b9050919050565b600060208201905081810360008301526127f4816120fd565b9050919050565b6000602082019050818103600083015261281481612163565b9050919050565b60006020820190508181036000830152612834816121a3565b9050919050565b6000602082019050818103600083015261285481612209565b9050919050565b6000602082019050818103600083015261287481612295565b9050919050565b60006020820190508181036000830152612894816122fb565b9050919050565b600060208201905081810360008301526128b481612361565b9050919050565b600060208201905081810360008301526128d4816123c7565b9050919050565b600060208201905081810360008301526128f48161242d565b9050919050565b6000602082019050818103600083015261291481612493565b9050919050565b60006020820190508181036000830152612934816124f9565b9050919050565b600060208201905081810360008301526129548161255f565b9050919050565b600060208201905061297060008301846125d4565b92915050565b600060408201905061298b60008301856125d4565b6129986020830184611fb0565b9392505050565b60006040820190506129b460008301856125d4565b6129c160208301846125d4565b9392505050565b6000604051905081810181811067ffffffffffffffff821117156129ef576129ee612d65565b5b8060405250919050565b600067ffffffffffffffff821115612a1457612a13612d65565b5b602082029050602081019050919050565b600067ffffffffffffffff821115612a4057612a3f612d65565b5b602082029050602081019050919050565b600067ffffffffffffffff821115612a6c57612a6b612d65565b5b601f19601f8301169050602081019050919050565b6000819050602082019050919050565b600081519050919050565b600081519050919050565b600081519050919050565b6000602082019050919050565b600082825260208201905092915050565b600082825260208201905092915050565b600082825260208201905092915050565b6000612afd82612c40565b9150612b0883612c40565b9250827fffffffffffffffffffffffffffffffffffffffffffffffffffffffffffffffff03821115612b3d57612b3c612d07565b5b828201905092915050565b6000612b5382612c40565b9150612b5e83612c40565b9250817fffffffffffffffffffffffffffffffffffffffffffffffffffffffffffffffff0483118215151615612b9757612b96612d07565b5b828202905092915050565b6000612bad82612c40565b9150612bb883612c40565b925082821015612bcb57612bca612d07565b5b828203905092915050565b6000612be182612c20565b9050919050565b60008115159050919050565b60007fffffffff0000000000000000000000000000000000000000000000000000000082169050919050565b600073ffffffffffffffffffffffffffffffffffffffff82169050919050565b6000819050919050565b82818337600083830152505050565b60005b83811015612c77578082015181840152602081019050612c5c565b83811115612c86576000848401525b50505050565b60006002820490506001821680612ca457607f821691505b60208210811415612cb857612cb7612d36565b5b50919050565b6000612cc982612c40565b91507fffffffffffffffffffffffffffffffffffffffffffffffffffffffffffffffff821415612cfc57612cfb612d07565b5b600182019050919050565b7f4e487b7100000000000000000000000000000000000000000000000000000000600052601160045260246000fd5b7f4e487b7100000000000000000000000000000000000000000000000000000000600052602260045260246000fd5b7f4e487b7100000000000000000000000000000000000000000000000000000000600052604160045260246000fd5b6000601f19601f8301169050919050565b60008160e01c9050919050565b600060443d1015612dc257612e65565b60046000803e612dd3600051612da5565b6308c379a08114612de45750612e65565b60405160043d036004823e80513d602482011167ffffffffffffffff82111715612e1057505050612e65565b808201805167ffffffffffffffff811115612e2f575050505050612e65565b8060208301013d8501811115612e4a57505050505050612e65565b612e5382612d94565b60208401016040528296505050505050505b90565b612e7181612bd6565b8114612e7c57600080fd5b50565b612e8881612be8565b8114612e9357600080fd5b50565b612e9f81612bf4565b8114612eaa57600080fd5b50565b612eb681612c40565b8114612ec157600080fd5b5056fea2646970667358221220605de9eac37d4901d09a8b47176dc53cb0c658787ce0c15cc0d636d03f44992f64736f6c63430008000033",
  "linkReferences": {},
  "deployedLinkReferences": {}
}